:100000000C945D000C9485000C9485000C94850084
:100010000C9485000C9485000C9485000C9485004C
:100020000C9485000C9485000C9485000C9485003C
:100030000C9485000C9485000C9485000C9485002C
:100040000C9424040C9485000C9494040C946E0479
:100050000C9485000C9485000C9485000C9485000C
:100060000C9485000C9485000000000024002700FB
:100070002A0000000000250028002B0004040404CE
:100080000404040402020202020203030303030342
:10009000010204081020408001020408102001021F
:1000A00004081020000000080002010000030407FB
:1000B00000000000000000008E0611241FBECFEFDC
:1000C000D8E0DEBFCDBF11E0A0E0B1E0E0E5F2E1B5
:1000D00002C005900D92A438B107D9F722E0A4E838
:1000E000B1E001C01D92AC32B207E1F710E0CDE5FE
:1000F000D0E004C02197FE010E942009CC35D10731
:10010000C9F70E94C6040C9426090C94000090E0E4
:10011000FC01EC55FF4F2491FC01E057FF4F349157
:10012000FC01E458FF4FE491EE23C9F0222339F09B
:10013000233001F1A8F4213019F1223029F1F0E047
:10014000EE0FFF1FEE58FF4FA591B4918FB7F894B3
:10015000EC91611126C030953E233C938FBF0895EA
:100160002730A9F02830C9F0243049F78091800069
:100170008F7D03C0809180008F7780938000DFCFD8
:1001800084B58F7784BDDBCF84B58F7DFBCF809125
:10019000B0008F778093B000D2CF8091B0008F7D78
:1001A000F9CF3E2BDACFCF93DF9390E0FC01E057FD
:1001B000FF4F249184589F4FFC0184918823D1F0F4
:1001C00090E0880F991FFC01E859FF4FA591B49169
:1001D000FC01EE58FF4FC591D49161110EC09FB73D
:1001E000F8948C91E22FE0958E238C932881E22362
:1001F000E8839FBFDF91CF9108958FB7F894EC917A
:10020000E22BEC938FBFF6CF1F93CF93DF93182F82
:10021000EB0161E00E94D300209739F460E0812F68
:10022000DF91CF911F910C948700CF3FD10511F43E
:1002300061E0F5CFE12FF0E0EC55FF4FE491E330C2
:1002400031F140F4E130B1F0E230E1F0C038D105F5
:100250007CF7E4CFE73029F1E83059F1E430B1F729
:1002600080918000806280938000D0938B00C09347
:100270008A0004C084B5806884BDC7BDDF91CF917A
:100280001F91089584B5806284BDC8BDF7CF809169
:100290008000806880938000D0938900C09388009C
:1002A000EDCF8091B00080688093B000C093B30020
:1002B000E5CF8091B00080628093B000C093B4001D
:1002C000DDCF8E3008F08E508770806480937C0084
:1002D00080917A00806480937A0080917A0086FD14
:1002E000FCCF809178009091790008953FB7F89401
:1002F0008091890190918A01A0918B01B0918C012C
:1003000026B5A89B05C02F3F19F00196A11DB11D70
:100310003FBFBA2FA92F982F8827BC01CD01620FAC
:10032000711D811D911D42E0660F771F881F991F67
:100330004A95D1F708958F929F92AF92BF92CF9234
:10034000DF92EF92FF926B017C010E9476014B01DC
:100350005C01C114D104E104F104B9F00E947601FA
:10036000681979098A099B09683E734081059105DE
:1003700080F321E0C21AD108E108F10888EE880E66
:1003800083E0981EA11CB11CE4CFFF90EF90DF909A
:10039000CF90BF90AF909F908F900895AF92BF92F3
:1003A000CF92DF92EF92FF920F931F93CF93DF9341
:1003B0006C017B018B01040F151FEB015E01AE1870
:1003C000BF08C017D10759F06991D601ED91FC9192
:1003D0000190F081E02DC6010995892B79F7C501BF
:1003E000DF91CF911F910F91FF90EF90DF90CF9011
:1003F000BF90AF900895FC01538D448D252F30E0C0
:10040000842F90E0821B930B541710F0CF96089521
:1004100001970895FC01918D828D981761F0A28D4E
:10042000AE0FBF2FB11D5D968C91928D9F5F9F7314
:10043000928F90E008958FEF9FEF0895FC01918DCA
:10044000828D981731F0828DE80FF11D858D90E037
:1004500008958FEF9FEF0895FC01918D228D892FD4
:1004600090E0805C9F4F821B91098F7399270895BC
:100470008FE891E00E942C0221E0892B09F420E012
:10048000822F089580E090E0892B29F00E943802A5
:1004900081110C9400000895FC01A48DA80FB92FC0
:1004A000B11DA35ABF4F2C91848D90E001968F739C
:1004B0009927848FA689B7892C93A089B1898C91BB
:1004C000837080648C93938D848D981306C002880A
:1004D000F389E02D80818F7D80830895EF92FF92D4
:1004E0000F931F93CF93DF93EC0181E0888F9B8D57
:1004F0008C8D98131AC0E889F989808185FF15C011
:100500009FB7F894EE89FF896083E889F989808133
:100510008370806480839FBF81E090E0DF91CF9102
:100520001F910F91FF90EF900895F62E0B8D10E024
:100530000F5F1F4F0F731127E02E8C8D8E110CC093
:100540000FB607FCFACFE889F989808185FFF5CFDE
:10055000CE010E944C02F1CFEB8DEC0FFD2FF11D6F
:10056000E35AFF4FF0829FB7F8940B8FEA89FB891B
:1005700080818062CFCFCF93DF93EC01888D882379
:10058000B9F0AA89BB89E889F9898C9185FD03C0F6
:10059000808186FD0DC00FB607FCF7CF8C9185FFDB
:1005A000F2CF808185FFEDCFCE010E944C02E9CFD2
:1005B000DF91CF910895FC0101900020E9F7319778
:1005C000AF01481B590BBC018FE891E00C94CE01A0
:1005D0008F929F92AF92BF920F931F93CF93DF930F
:1005E000CDB7DEB7A1970FB6F894DEBF0FBECDBF73
:1005F00019A2423008F44AE08E010F5D1F4F842E8D
:10060000912CB12CA12CA50194010E94FE08E62F8B
:10061000B901CA01EA30F4F4E05DD801EE938D012E
:10062000232B242B252B79F790E080E0109719F0ED
:10063000CD010E94DB02A1960FB6F894DEBF0FBE7B
:10064000CDBFDF91CF911F910F91BF90AF909F9041
:100650008F900895E95CE1CF88E291E00E94DB028F
:1006600080918D0190918E01019790938E018093DE
:100670008D010895CF93DF93D0E0C0E080918D018C
:1006800090918E01C817D90734F482E191E00E945D
:10069000DB022196F3CFDF91CF9108950E943A03B8
:1006A00084E191E00E94DB0288E191E00E94DB029C
:1006B00087E291E00E94DB0280918D0190918E0192
:1006C000019690938E0180938D0108958F929F9251
:1006D000AF92BF92CF92DF92EF92FF925C016A01DC
:1006E0007B010E943A03C5010E94DB028AE291E08D
:1006F0000E94DB02A7019601C701B6010E94F9081A
:10070000882381F08DE291E00E94DB0287E291E094
:10071000FF90EF90DF90CF90BF90AF909F908F9021
:100720000C94DB0246015701E894B7F82FEF3FEF36
:100730004FE75FE7C501B4010E94F90881110DC0C0
:100740002FEF3FEF4FE75FE7C501B4010E94280795
:1007500018161CF481E391E0D7CF2FEF3FEF4FE75E
:100760005FE4C701B6010E94870818161CF485E3F0
:1007700091E0CACF2FEF3FEF4FE75FECC701B60123
:100780000E94280787FDF3CF20E030E0A901C701D0
:10079000B6010E94280787FF09C06DE28FE891E04B
:1007A0000E946E02F7FAF094F7F8F0942AE037ED21
:1007B00043EA5BE3C701B6010E94BC064B015C0142
:1007C0000E94A6076B017C010E94D5079B01AC012A
:1007D000C501B4010E94BB064B015C014AE0C701A0
:1007E000B6010E94E8026EE28FE891E00E946E027C
:1007F00020E030E040E251E4C501B4010E948C08E1
:100800004B015C010E94A6076B01F12CE12C4AE030
:10081000C701B6010E94E802C701B6010E94D507D0
:100820009B01AC01C501B4010E94BB0620E030E091
:1008300040E251E40E948C080E94A60790E080E00C
:100840004AE00E94E80262CF1F920F920FB60F9209
:1008500011242F933F938F939F93AF93BF938091D6
:10086000850190918601A0918701B0918801309116
:10087000840123E0230F2D3758F50196A11DB11DEA
:10088000209384018093850190938601A093870132
:10089000B09388018091890190918A01A0918B0188
:1008A000B0918C010196A11DB11D80938901909397
:1008B0008A01A0938B01B0938C01BF91AF919F915E
:1008C0008F913F912F910F900FBE0F901F90189511
:1008D00026E8230F0296A11DB11DD2CF1F920F92C1
:1008E0000FB60F9211242F933F934F935F936F9303
:1008F0007F938F939F93AF93BF93EF93FF938FE873
:1009000091E00E944C02FF91EF91BF91AF919F91B6
:100910008F917F916F915F914F913F912F910F90A8
:100920000FBE0F901F9018951F920F920FB60F9247
:1009300011242F938F939F93EF93FF93E0919F0147
:10094000F091A0018081E091A501F091A60182FDC6
:100950001BC090818091A8018F5F8F732091A901A6
:10096000821741F0E091A801F0E0E157FE4F958F2A
:100970008093A801FF91EF919F918F912F910F90FC
:100980000FBE0F901F9018958081F4CF789484B596
:10099000826084BD84B5816084BD85B5826085BD7B
:1009A00085B5816085BD80916E00816080936E0009
:1009B00010928100809181008260809381008091FB
:1009C00081008160809381008091800081608093AC
:1009D00080008091B10084608093B1008091B0006C
:1009E00081608093B00080917A00846080937A0067
:1009F00080917A00826080937A0080917A00816091
:100A000080937A0080917A00806880937A001092B7
:100A1000C100E0919F01F091A00182E08083E0910C
:100A20009B01F0919C011082E0919D01F0919E014B
:100A30008FEC80831092A701E091A301F091A401B3
:100A400086E08083E091A101F091A2018081806124
:100A50008083E091A101F091A20180818860808370
:100A6000E091A101F091A201808180688083E091F2
:100A7000A101F091A20180818F7D80830E944E03AD
:100A800060E08FE00E94D30060E08EE00E94D3001F
:100A900060E080E10E94D30061E085E00E94D30025
:100AA0000E944E0340E050E068E072E489E391E088
:100AB0000E9466030E942C0362E270E085E00E94BF
:100AC00004016EE170E080E090E00E949B010E94D2
:100AD0004E0340E050E064EC72E484E491E00E9454
:100AE00066030E942C030E944E03C2E6D0E0C12C94
:100AF000D12C76018FE00E946101BC01990F880B17
:100B0000990B0E94D7079B01AC010E94BC0620E014
:100B100030E040EA50E40E948C0820E030EC4FE7DF
:100B200054E40E942D079B01AC01C701B6010E944D
:100B3000BC066B017C012197E9F620E030E044EC33
:100B400052E40E942D076B017C01BC01A60185E6E1
:100B500091E00E9466030E942C0320E030E040E018
:100B600050E4C701B6010E94BB0620E030E040E03F
:100B70005FE30E948C084B015C01B701A60185E58B
:100B800091E00E946603B701A60185E691E00E940C
:100B90006603B501A4018FE691E00E946603412C33
:100BA000512C88E0682E82E4782ED0E0C0E020E06E
:100BB00030E0A901C501B4010E948708181624F08D
:100BC000B7FAB094B7F8B09427E137EB41ED58E3AA
:100BD000C501B4010E94870818160CF08CC021963C
:100BE000A3019201C301B2010E94BC06A7019601B4
:100BF0000E942D072B013C010E949F0785E00E9467
:100C000004016EE170E080E090E00E949B010E9490
:100C10004E0340E050E064EC72E484E491E00E9412
:100C200066030E942C030E944E0302E610E0C12CD2
:100C3000D12C76018FE00E946101BC01990F880BD5
:100C4000990B0E94D7079B01AC010E94BC0620E0D3
:100C500030E040EA50E40E948C0820E030EC4FE79E
:100C600054E40E942D079B01AC01C701B6010E940C
:100C7000BC066B017C0101501109E1F620E030E077
:100C800044EC52E40E942D076B017C01BC01A601DB
:100C900085E691E00E9466030E942C0320E030E08C
:100CA00040E050E4C701B6010E94BB0620E030E0FE
:100CB00040E05FE30E948C084B015C01BE010D2EF9
:100CC000000C880B990B0E94D707AB01BC0189E58A
:100CD00091E00E946603B701A60183E691E00E94BD
:100CE0006603B501A4018DE691E00E946603C3305E
:100CF000D10509F05CCF0E942C0368EE73E080E020
:100D000090E00E949B01C0E0D0E02097F1F30E94A8
:100D100038028823D1F30E940000F7CFEFE8F1E01A
:100D20001382128288EE93E0A0E0B0E08483958382
:100D3000A683B78384E091E09183808385EC90E083
:100D40009587848784EC90E09787868780EC90E095
:100D5000918B808B81EC90E0938B828B82EC90E086
:100D6000958B848B86EC90E0978B868B118E128E00
:100D7000138E148E08955058BB27AA270E94D306BD
:100D80000C944D080E943F0838F00E94460820F05D
:100D900039F49F3F19F426F40C943C080EF4E095C6
:100DA000E7FB0C943608E92F0E945E0858F3BA1747
:100DB000620773078407950720F079F4A6F50C9471
:100DC00080080EF4E0950B2EBA2FA02D0B01B9016F
:100DD00090010C01CA01A0011124FF27591B99F0B1
:100DE000593F50F4503E68F11A16F040A22F232FBD
:100DF000342F4427585FF3CF469537952795A7950D
:100E0000F0405395C9F77EF41F16BA0B620B730BB3
:100E1000840BBAF09150A1F0FF0FBB1F661F771F24
:100E2000881FC2F70EC0BA0F621F731F841F48F4D9
:100E3000879577956795B795F7959E3F08F0B0CF62
:100E40009395880F08F09927EE0F97958795089549
:100E50000E94120808F481E008950E9441070C9452
:100E60004D080E94460858F00E943F0840F029F4BF
:100E70005F3F29F00C94360851110C9481080C94B2
:100E80003C080E945E0868F39923B1F3552391F35F
:100E9000951B550BBB27AA2762177307840738F0E9
:100EA0009F5F5F4F220F331F441FAA1FA9F335D046
:100EB0000E2E3AF0E0E832D091505040E695001CFA
:100EC000CAF72BD0FE2F29D0660F771F881FBB1FB4
:100ED000261737074807AB07B0E809F0BB0B802D92
:100EE000BF01FF2793585F4F3AF09E3F510578F0BE
:100EF0000C9436080C9481085F3FE4F3983ED4F3D9
:100F0000869577956795B795F7959F5FC9F7880F91
:100F1000911D9695879597F90895E1E0660F771FE3
:100F2000881FBB1F621773078407BA0720F0621B74
:100F3000730B840BBA0BEE1F88F7E09508950E949F
:100F4000A6076894B1110C94810808950E94660860
:100F500088F09F5798F0B92F9927B751B0F0E1F07A
:100F6000660F771F881F991F1AF0BA95C9F714C02A
:100F7000B13091F00E948008B1E008950C9480088F
:100F8000672F782F8827B85F39F0B93FCCF3869563
:100F900077956795B395D9F73EF4909580957095C0
:100FA00061957F4F8F4F9F4F0895E89409C097FB3D
:100FB0003EF490958095709561957F4F8F4F9F4F30
:100FC0009923A9F0F92F96E9BB279395F695879574
:100FD00077956795B795F111F8CFFAF4BB0F11F437
:100FE00060FF1BC06F5F7F4F8F4F9F4F16C08823DE
:100FF00011F096E911C0772321F09EE8872F762F14
:1010000005C0662371F096E8862F70E060E02AF054
:101010009A95660F771F881FDAF7880F9695879540
:1010200097F90895990F0008550FAA0BE0E8FEEF15
:1010300016161706E807F907C0F012161306E4079C
:10104000F50798F0621B730B840B950B39F40A2695
:1010500061F0232B242B252B21F408950A2609F473
:10106000A140A6958FEF811D811D089597F99F6777
:1010700080E870E060E008959FEF80EC0895002420
:101080000A941616170618060906089500240A94ED
:1010900012161306140605060895092E0394000C73
:1010A00011F4882352F0BB0F40F4BF2B11F460FF02
:1010B00004C06F5F7F4F8F4F9F4F089557FD90582B
:1010C000440F551F59F05F3F71F04795880F97FB0C
:1010D000991F61F09F3F79F08795089512161306C6
:1010E0001406551FF2CF4695F1DF08C016161706F5
:1010F0001806991FF1CF869571056105089408952A
:10110000E894BB2766277727CB0197F908950E94BB
:10111000120808F48FEF08950E949F080C944D0860
:101120000E943F0838F00E94460820F0952311F0F5
:101130000C9436080C943C0811240C9481080E94ED
:101140005E0870F3959FC1F3950F50E0551F629FA5
:10115000F001729FBB27F00DB11D639FAA27F00D10
:10116000B11DAA1F649F6627B00DA11D661F829F37
:101170002227B00DA11D621F739FB00DA11D621F1C
:10118000839FA00D611D221F749F3327A00D611D39
:10119000231F849F600D211D822F762F6A2F11241B
:1011A0009F5750409AF0F1F088234AF0EE0FFF1F4E
:1011B000BB1F661F771F881F91505040A9F79E3FA5
:1011C000510580F00C9436080C9481085F3FE4F3DD
:1011D000983ED4F3869577956795B795F795E795FB
:1011E0009F5FC1F7FE2B880F911D9695879597F904
:1011F00008950E941208880B990B0895A1E21A2EF7
:10120000AA1BBB1BFD010DC0AA1FBB1FEE1FFF1FAA
:10121000A217B307E407F50720F0A21BB30BE40BFA
:10122000F50B661F771F881F991F1A9469F7609541
:101230007095809590959B01AC01BD01CF010895FB
:10124000EE0FFF1F0590F491E02D0994F894FFCF65
:10125000000000006E02CE01FB01BB022C020A025C
:101260001E020900696E20005F66756E6374696F07
:101270006E4E616D653A000D0A003A20006E616E97
:1012800000696E66006F7666004475747920637934
:10129000636C650053616D706C6573207265717568
:1012A000697265640050574D0049746572617469D4
:1012B0006F6E002020566F6C7461676500202052AD
:1012C000656C6174697665207472756520657272EB
:0412D0006F72000039
:00000001FF
